:020000040800F2
:10000000000002207D070008C5070008C50700089A
:10001000C5070008C5070008C50700080000000064
:10002000000000000000000000000000C5070008FC
:10003000C507000800000000C5070008C507000844
:10004000C5070008C5070008C5070008C507000860
:10005000C5070008C5070008C5070008C507000850
:10006000C5070008C5070008C5070008C507000840
:10007000C5070008C5070008C5070008C507000830
:10008000C5070008C5070008C507000800000000F4
:10009000000000000000000000000000C50700088C
:1000A000C5070008C5070008C5070008C507000800
:1000B000C5070008C5070008C5070008C5070008F0
:1000C000C5070008C5070008C5070008C5070008E0
:1000D000C5070008C5070008C507000800000000A4
:1000E000C5070008C5070008C50700080000000094
:1000F000000000000000000000000000C50700082C
:1001000000000000C5070008C5070008C507000873
:1001100000000000000000000000000000000000DF
:10012000C5070008C5070008C5070008C50700087F
:10013000C5070008000000000000000000000000EB
:10014000000000000000000000000000C5070008DB
:10015000C5070008C5070008C5070008C50700084F
:10016000C5070008C50700080000000000000000E7
:10017000000000000000000000000000000000007F
:1001800000000000C507000800000000000000009B
:08019000C5070008C5070008BF
:100198000348044B834202D0034B03B1184770470E
:1001A8000000002000000020000000000548064B69
:1001B8001B1AD90F01EBA301491002D0034B03B15D
:1001C80018477047000000200000002000000000D1
:1001D80010B5064C237843B9FFF7DAFF044B13B187
:1001E8000448AFF300800123237010BD00000020F5
:1001F80000000000C807000808B5054B1BB10549F9
:100208000548AFF30080BDE80840FFF7CFBF00BF47
:100218000000000004000020C807000810B584B0E2
:1002280000F05AFA00F08AF800F012F9394800F0A4
:10023800C1F8394800F0BEF84FF47A7000F07AFA45
:10024800682000F0EBF9C82000F088FA642000F07C
:1002580071FA642000F06EFA00F0F6F904462F48AF
:1002680000F0A8F8204600F0B5F82D4800F0A2F8F4
:10027800682C09D02B4800F09DF800F051FA4FF493
:100288007A7000F06BFAF8E7274800F093F800F06E
:100298003DFA02AA0DF1060101A800F0EDF90DF1F1
:1002A8000E0203A90DF10A0000F0FEF91F4800F044
:1002B80081F8BDF9040000F08DF81D4800F07AF8C7
:1002C800BDF9060000F086F81A4800F073F8BDF989
:1002D800080000F07FF8184800F06CF8BDF90A0033
:1002E80000F078F8124800F065F8BDF90C0000F04D
:1002F80071F8104800F05EF8BDF90E0000F06AF8D9
:10030800074800F057F800F00BFAC82000F026FA6A
:10031800BFE700BFE0070008080800081C0800083D
:100328003408000884080008380800086408000831
:100338007008000874080008780800081B491C4B5E
:10034800D1F8300840F0010010B4C1F83008D1F8F5
:10035800404844F40034C1F8404819685DF8044B3B
:1003680021F030011960196841F02001196099687D
:1003780041F030019960196A21F470611962196AB3
:100388004FF040228B2041F4E0611962C2F8080462
:10039800D2F80C3443F00803C2F80C34D2F80C3409
:1003A80043F40053C2F80C34704700BF00300240D9
:1003B80000000240017859B14FF04022D2F80034D1
:1003C8001B06FBD5C2F8041410F8011F0029F5D14B
:1003D800704700BF00280ADB13D14FF04022D2F843
:1003E80000341906FBD53023C2F8043470474FF0A7
:1003F8004022D2F800341B06FBD52D23C2F8043462
:10040800404210B584B00DF1040E104C7246002124
:10041800A4FB00C3DB0803EB830CA0EB4C003030DB
:1004280002F8010B01311846002BF1D171444FF04D
:10043800402211F8010DD2F800341B06FBD58E4579
:10044800C2F80404F5D104B010BD00BFCDCCCCCCAB
:100458002E492F4BD1F830082E4A40F0020010B434
:10046800C1F83008D1F8400840F40010C1F840083D
:10047800D3F8001421F47041C3F80014D3F8001421
:1004880041F42041C3F80014D3F8041441F0C0012A
:10049800C3F80414D3F8081441F47041C3F80814DD
:1004A800D3F80C1421F47041C3F80C14D3F80C14CD
:1004B80041F4A041C3F80C14D3F8201421F07F4173
:1004C800C3F82014D3F8201441F08841C3F820144D
:1004D800D2F8003443F40043C2F80034D2F80034B0
:1004E800102423F4004350201121C2F80034C2F82C
:1004F8000444C2F81C04C2F82014D2F8003443F0B3
:100508000103C2F800345DF8044B70470030024024
:100518000000024000500040054AD2F8003443F47D
:100528008073C2F80034D2F81434DB07FBD5704767
:1005380000500040034AD2F8003443F40073C2F874
:100548000034704700500040054A41EA4001C2F8B3
:100558001014D2F814349B07FBD5D2F8183470471E
:1005680000500040064AD2F814341906FBD5044955
:10057800C2F81004D1F814345B07FBD5704700BFEC
:1005880000500040074AD2F8003443F48063C2F8B0
:100598000034D2F814345B06FBD5D2F81004C0B28C
:1005A800704700BF005000400A4AD2F8003423F4D4
:1005B8008063C2F80034D2F8003443F40073C2F800
:1005C8000034D2F814345B06FBD5D2F81004C0B25C
:1005D800704700BF0050004070B50F4D04460E46EE
:1005E800FFF79AFF00212878FFF7AEFF2046FFF7B4
:1005F800B9FFFFF791FF28780121FFF7A5FF741EC7
:10060800351DFFF7BFFF04F8010FAC42F9D1FFF722
:10061800CBFF707170BD00BF1C00002010B5094CE5
:100628002070FFF779FF20780021FFF78DFF6B20FE
:10063800FFF798FF0020FFF795FFBDE81040FFF790
:1006480079BF00BF1C00002010B50A4CFFF764FFFB
:1006580000212078FFF778FF7520FFF783FFFFF769
:100668005BFF20780121FFF76FFFBDE81040FFF71F
:100678009BBF00BF1C00002070B582B006460D4627
:100688003B2069461446FFF7A7FFBDF80030BDF8C8
:1006980002205BBA3380BDF8043052BA5BBA2A80B4
:1006A800238002B070BD00BF70B582B006460D460B
:1006B800432069461446FFF78FFFBDF80030BDF8A8
:1006C80002205BBA3380BDF8043052BA5BBA2A8084
:1006D800238002B070BD00BF0A490B4BD1F8302807
:1006E80042F00402C1F83028D3F8002822F0406212
:1006F800C3F80028D3F8002842F08062C3F8002825
:10070800704700BF0030024000000240034AD2F8A0
:10071800143823F40053C2F814387047000002401C
:10072800034AD2F8143883F40053C2F814387047D7
:100738000000024010B5084CD4F8143823F40053D4
:10074800C4F8143800F00AF8D4F8143843F4005305
:10075800C4F8143810BD00BF000002404FF47A639B
:1007680003FB00F020B1002300BF01338342FBD11B
:10077800704700BFDFF82CD00B480C490C4A002307
:1007880002E0D458C4500433C4188C42F9D3094A3F
:10079800094C002301E013600432A242FBD3FFF7A7
:1007A8003DFD7047000002200000002000000020EE
:1007B800A80800080000002020000020FEE7000034
:1007C800F8B500BFF8BC08BC9E467047F8B500BF36
:0807D800F8BC08BC9E46704706
:1007E0000D0A3D3D3D2053544D3332204D5055367A
:1007F0003035302044617461204C6F67676572202A
:100800003D3D3D0D0A000000496E697469616C69E7
:100810007A696E672E2E2E0D0A0000004D50553657
:100820003035302057484F5F414D5F493A2030788E
:10083000000000000D0A00004D50553630353020C4
:10084000666F756E6421205374617274696E6720DF
:1008500064617461206C6F6767696E672E2E2E0D60
:100860000A0D0A00416363656C3A20583D000000A0
:1008700020593D00205A3D00207C204779726F3A74
:1008800020583D004552524F523A204D5055363077
:100890003530206E6F7420666F756E64210D0A000E
:0408A0000102000849
:0408A400D90100086E
:040000050800077D6B
:00000001FF
